:060000000C942F000C948B
:1000060000000C9400000C9400000C9400000C946A
:1000160000000C9400000C9400000C9400000C945A
:1000260000000C9400000C9400000C9400000C944A
:1000360000000C9400000C9400000C9400000C943A
:1000460000000C9400000C9400000C9400000000CA
:100056000200040054000000F894EE27ECBBF1E027
:10006600FBBFEBBFE5BF8DE0A2E0BB27ED938A9512
:10007600E9F780E098E0A0E6ED930197E9F7E6E579
:10008600F0E085919591009761F0A591B591059065
:100096001590BF01F00105900D920197E1F7FB0164
:1000A600F0CFEFE5EDBFE8E0EEBFC0E6D2E00C949E
:1000B6006A00AA93E881E7B983E08A95F1F7369A50
:1000C600349BFECF349AE4B1F5B121960895E0E071
:1000D600EABBEBBBE7BBE8BBE1E0E4BBE0E0E5BBCA
:1000E600E1BBE2BBE3BFE2BFECBFEFBDEEBDEDBDE2
:1000F600ECBDE7BDE6BDEBBDEABDE9BDE8BDE2BDD1
:10010600E5BDE4BDE3BDE9BFE5BFE4BFEAB9E0E8AC
:10011600E8B9E0E0E7B9E1E8E6B9E0E0E0BFEDB96B
:10012600E6BFA0E0C6DF2F01A898D2010E94A10079
:10013600A89AD2010E94A100F4CFFFCF109639F001
:100146008AEF90E00197F1F7A8951197C9F70895FE
:00000001FF
