:100000000C9433000C9400000C9400000C9400003D
:100010000C9400000C9400000C9400000C94000060
:100020000C9400000C9400000C9400000C94000050
:100030000C9400000C9400000C9400000C94000040
:100040000C9400000C9400000C9400000C94000030
:100050000C9400003F065B4F666D7D077F6F0A00C2
:10006000600254000000F894EE27ECBBF1E0FBBF07
:10007000EBBFE5BF8DE0A2E0BB27ED938A95E9F7E2
:1000800080E098E0A0E6ED930197E9F7EEE5F0E077
:1000900085919591009761F0A591B5910590159086
:1000A000BF01F00105900D920197E1F7FB01F0CF40
:1000B000EFE5EDBFE8E0EEBFC0E6D2E00C946000F3
:1000C000E0E0EABBEBBBE7BBE8BBEFEFE4BBE0E0A3
:1000D000E5BBE1BBE2BBE3BFE2BFECBFEFBDEEBD02
:1000E000EDBDECBDE7BDE6BDEBBDEABDE9BDE8BDDC
:1000F000E2BDE5BDE4BDE3BDE9BFE5BFE4BFEAB9EC
:10010000E0E8E8B9E0E0E0BFE6B9EDB9E6BF4424D5
:100110005524E9E0F0E0E415F50574F0A0E6B2E05E
:10012000A40DB51DEC91E5BBA4EFB1E00E949E00CB
:10013000F20131962F01EDCFEACFFFCF109639F0C3
:100140008AEF90E00197F1F7A8951197C9F7089504
:00000001FF
