:060000000C943E000C947C
:1000060000000C9400000C9400000C9400000C946A
:1000160000000C9400000C9400000C9400000C945A
:1000260000000C9400000C9400000C9400000C944A
:1000360000000C9400000C9400000C9400000C943A
:1000460000000C9400000C9400000C940000102793
:10005600E80364000A00010000100001100001001E
:1000660045726F72000080C00500600266000200E3
:1000760065026C000000F894EE27ECBBF1E0FBBFD4
:10008600EBBFE5BF8DE0A2E0BB27ED938A95E9F7CC
:1000960080E098E0A0E6ED930197E9F7EEE6F0E060
:1000A60085919591009761F0A591B5910590159070
:1000B600BF01F00105900D920197E1F7FB01F0CF2A
:1000C600EFE5EDBFE8E0EEBFC0E6D2E00C947900C4
:1000D600AA93E881E7B983E08A95F1F7369A349BCB
:1000E600FECF349AE4B1F5B10C946401E0E0EABBCA
:1000F600EBBBE7BBE8BBE8E0E4BBE0E0E5BBE0E286
:10010600E1BBE0E0E2BBE3BFE2BFECBFEFBDEEBDAB
:10011600EDBDECBDE7BDE6BDEBBDEABDE9BDE8BDA5
:10012600E2BDE5BDE4BDE3BDE9BFE5BFE4BFEAB9B5
:10013600E0E8E8B9E0E0E7B9E1E8E6B9E0E0E0BF29
:10014600EDB9E6BFA0E10E943901A0E0C1DF662754
:1001560077270E94E301DF01CB01ECEBF4E763E0D4
:1001660070E40E9411020E94AC012F01E4E1F0E06C
:100176004E165F0614F0AB9A01C0AB98EEE1F0E0C4
:10018600E415F50544F4A0E6B2E00E942801A8ECC7
:10019600B0E00E9473010E940701E7E2F0E0E41577
:1001A600F50514F4959801C0959ACFCFFFCFAA9381
:1001B600E5B3EF70AE2FE881E07FEA2BE5BB82E086
:1001C6008A95F1F7AA9A82E08A95F1F7AA9882E0D1
:1001D6008A95F1F776C0AA93A881E9DFE881E295CE
:1001E600E883A881E4DF81E18A95F1F76AC0AA93E2
:1001F600E881F0E0EB59FD4FE081A981AE0FEBDF1E
:100206007980688022960895A2E00E946601ACE09B
:10021600E2DFA1E00E946601E0E06E2E7E2E0895E8
:10022600AA93A881AA3011F0791448F0E0E0EA9385
:100236006394A62DDCDFA881AA3009F442C073942A
:10024600A89AA881C8DFA8983CC0BA93AA931A9323
:10025600A981BA81ED91A983BA831E2FE03019F0E6
:10026600A12FDEDFF5CF188123960895AA93E4B374
:10027600E06FE4BBA29AA09AA19AAA98A898A99816
:100286009880E881E058E0936702E881E054E093C3
:100296006802A4E1B0E00E9473010E946C010E9412
:1002A6006C010E946C01A0E282DF81E28A95F1F77F
:1002B600A8E291DFA4E08FDFA5E88DDFA6E08BDF63
:1002C600A3DF219608950E94EE00A3E0B0E00C940F
:1002D6007301A0E30E94DA0081E28A95F1F708959E
:1002E600109639F08AEF90E00197F1F7A8951197EB
:1002F600C9F70895552342F4503811F4E0FF04C0BD
:100306003196691F791F6BF050E8572711F45F93F8
:1003160073C05F3F31F0660F000C57956795752FD8
:1003260008955F9300200AF073C06CC050E8192E40
:100336001522880F991F9527550F879550E8072E88
:100346000522660F771F7527550F679508956894E0
:1003560001C0E8945F93F2DF703818F07F3F08F42D
:100366004BC056E1571BAAF4519558300EF459303C
:1003760030F0EFEFFFEF6FEF7FE777F91AC07727DF
:100386005523B9F0EE0FFF1F661F771F5A95D1F759
:1003960010C07727583028F0EF2FF62F672F5850C8
:1003A600F9CF552331F076956795F795E7955A95E8
:1003B600D1F700200AF477D05F910895689401C0C0
:1003C600E894309760407040B1F0002426F077231F
:1003D60012F4009468D0172E7EE1112032F07A953F
:1003E600EE0FFF1F661F111CF9CFEF2FF62F612DA1
:1003F6005F938ADF5F910895EE27FF2766277727A9
:100406005F910895EFEFFFEF6FE77FEF5F9108953C
:10041600EFEFFFEF6FE77FE75F9108955F9386DF6A
:10042600703821F411200AF4EDCFF2CF903809F498
:10043600E3CF01240894970B1BF4D4F30020F3CFE9
:10044600792F1F932F933F934F9311241127222720
:1004560033274427552790E2AE17BF078607410783
:1004660030F0AE1BBF0B860B410B089401C088947D
:10047600551F221F331F111CAA1FBB1F881F441F95
:100486009A9551F7F901612D4F913F912F911F9147
:10049600662332F0550FEE1FFF1F661F7A9543F253
:1004A60029DF5F910895F09560957095E195FF4F6E
:1004B6006F4F7F4F08956F2F660F660B762F089547
:00000001FF
