:100000000C942F000C9400000C9400000C94000041
:100010000C9400000C9400000C9400000C94000060
:100020000C9400000C9400000C9400000C94000050
:100030000C9400000C9400000C9400000C94000040
:100040000C9400000C9400000C9400000C94000030
:100050000C94000000000200060054000000F89418
:10006000EE27ECBBF1E0FBBFEBBFE5BF8DE0A2E00C
:10007000BB27ED938A95E9F780E098E0A0E6ED9341
:100080000197E9F7E6E5F0E085919591009761F039
:10009000A591B59105901590BF01F00105900D92C5
:1000A0000197E1F7FB01F0CFEFE5EDBFE8E0EEBF30
:1000B000C0E6D2E00C945C00EFEFEABBE1E0F0E0D8
:1000C0002F01E0E8F0E0E415F50554F0640C751C30
:1000D0006BBAA4EFB1E00E948600440C551CF1CF2E
:1000E000E1E0F0E02F01E1E0F0E04E165F0654F0B1
:1000F000641875086BBAA4EFB1E00E948600440C46
:10010000551CF1CF66247724D9CFFFCF109639F054
:100110008AEF90E00197F1F7A8951197C9F7089534
:00000001FF
