:100000000C942A000C9400000C9400000C94000046
:100010000C9400000C9400000C9400000C94000060
:100020000C9400000C9400000C9400000C94000050
:100030000C9400000C9400000C9400000C94000040
:100040000C9400000C9400000C9400000C94000030
:100050000C940000F894EE27ECBBF1E0FBBFEBBF83
:10006000E5BF8DE0A2E0BB27ED938A95E9F780E03C
:1000700098E0A0E6ED930197E9F7EFE5EDBFE8E042
:10008000EEBFC0E6D2E00C944500EFEFEABBE1E042
:1000900010D0E2E00ED0E4E00CD0E8E00AD0E0E1DD
:1000A00008D0E0E206D0E0E404D0E0E802D0EFCFF0
:1000B000FFCFEBBBA4EFB1E00C945E00109639F0DB
:1000C0008AEF90E00197F1F7A8951197C9F7089585
:00000001FF
