:040000000C943D001F
:100004000C9400000C9400000C9400000C9400006C
:100014000C9400000C9400000C9400000C9400005C
:100024000C9400000C9400000C9400000C9400004C
:100034000C9400000C9400000C9400000C9400003C
:100044000C9400000C9400000C9400000C9400002C
:100054001027E80364000A000100001000011000EA
:10006400010074656D703A202564000080C00200B0
:10007400740270000000F894EE27ECBBF1E0FBBFC3
:10008400EBBFE5BF8DE0A2E0BB27ED938A95E9F7CE
:1000940080E098E0A0E6ED930197E9F7E2E7F0E06D
:1000A40085919591009761F0A591B5910590159072
:1000B400BF01F00105900D920197E1F7FB01F0CF2C
:1000C400EFE5EDBFE8E0EEBFC0E6D2E00C947800C7
:1000D400AA93E881E7B983E08A95F1F7369A349BCD
:1000E400FECF349AE4B1F5B10C940303E0E0EABB2B
:1000F400EBBBE7BBE8BBE4BBE5BBE1BBE2BBE3BFF7
:10010400E2BFECBFEFBDEEBDEDBDECBDE7BDE6BDAE
:10011400EBBDEABDE9BDE8BDE2BDE5BDE4BDE3BDBF
:10012400E9BFE5BFE4BFEAB9E0E8E8B9E0E0E7B970
:10013400E1E8E6B9E0E0E0BFEDB9E6BFA0E10E9486
:10014400D802A0E0C5DF662777270E94C703DF0136
:10015400CB01ECEBF4E763E070E40E94F5030E944A
:1001640090032F01E0E6F2E0FA93EA93E6E6F0E08A
:10017400FA93EA93F2010E944A040E94570484E02D
:100184000E9445022896A0E6B2E00E94C702A8ECAD
:10019400B0E00E9457030E94A602D3CFFFCFBA93C8
:1001A400AA931A930A93AA81BB8112960E944F04C0
:1001B400309759F1AA81BB8114960E944F048F0194
:1001C400309761F00230E0E01E0798F0F8013197B3
:1001D4008F01AA81BB811496ED93FC93AA81BB8104
:1001E4001296ED91FD913196FE93EE933197AC8189
:1001F400A083AA81BB810E944F04FF232AF0ED91C2
:10020400FD913196FE93EE9306C0AA81BB81EFEF78
:10021400FFEFED93FC931981088125960895BA9315
:10022400AA9326970E945C0410E0AC85BD85E0E0AB
:10023400F0E0ED93FC93EA89FB893196EA8BFB8B22
:100244003197E4912E2FE03009F415C1E12FE0300D
:1002540039F4253211F411E002C00E941E030AC1D0
:10026400E130A9F4253219F40E941E0302C112E000
:1002740040E000E02D3211F401E0FCC02B3211F417
:100284004BE2F8C0203211F440E2F4C002C0E23084
:1002940039F450E013E0203311F40068EBC003C0DC
:1002A400E33009F0E7C0203310F02A3308F007C028
:1002B400AAE05A9F502DE22FE0535E0FDBC0E22FDD
:1002C400E33649F40E942503E889F989A481AA93B5
:1002D4000E942B03CEC0E33741F40E9425030E9401
:1002E40031030E9405031E2F0AC0E03761F40E9407
:1002F40025030E9431030E9411031E2F086002602F
:100304000F7730E034C0E43611F0E93611F40460BC
:1003140002C0E53731F4E4E5F0E0EE83FF8315E055
:100324000CC0E83511F4086003C0E83709F0A1C037
:10033400EEE5F0E0EE83FF8314E002FF14C00E94B8
:1003440025030E943B03AB85AA233AF4EA85FB8587
:100354000E943E04EA87FB874DE2403011F01F5FA4
:1003640001C00B7F04C00E9425030E943B0300FDD3
:1003740011C0151778F407FF08C002FF04C00B7FF3
:10038400242F115001C020E301C020E20E941E036B
:100394005150EFCF312F01FF17C03030A1F003FFD0
:1003A40006C0EE81FF812591EE83FF8305C0AE81F7
:1003B400BF812D91AE83BF830E941E03503009F08C
:1003C40051503150EACF4BC020E3EE81FF810E94AF
:1003D4005304E887F987EE81FF813296EE83FF8329
:1003E400E885F985AA85BB85AE17BF0750F02F5F56
:1003F400A885B985EA85FB85EA1BFB0BEA87FB87A1
:10040400EFCF2A3328F003FF02C0295F01C0295D22
:1004140004FD1AC0213320F4A885B985119709F485
:1004240009C0531710F000FF01C013C020E207FFFA
:100434000BC020E3006102FF07C00B7F4A930E94B8
:100444002B03503009F051500E941E03503009F024
:1004540051503150A885B985129708F0B5CF00FFE7
:1004640008C0503031F05150E0E2EA930E942B036F
:10047400F8CF10E0E0CEAC85BD850E944F040E9409
:10048400630464960895FF92F82E26970E945E04F2
:100494000E944303309719F4EFEFFFEF23C0DE010E
:1004A40016960E943A048D010E944303EE83FF8353
:1004B400E0E0E887E987DE011A960E943A040E9488
:1004C4004F04FA93EA931A930A93E1EDF0E0FA9356
:1004D400EA93DE011A96A3DE9F01AE81BF81E0E0BC
:1004E400EC93F9010E9465042A96FF900895AA935B
:1004F400E5B3EF70AE2FE881E07FEA2BE5BB82E045
:100504008A95F1F7AA9A82E08A95F1F7AA9882E08F
:100514008A95F1F776C0AA93A881E9DFE881E2958C
:10052400E883A881E4DF81E18A95F1F76AC0AA93A0
:10053400E881F0E0EC58FD4FE081A981AE0FEBDFDC
:100544007980688022960895A2E00E944A03ACE074
:10055400E2DFA1E00E944A03E0E06E2E7E2E0895C1
:10056400AA93A881AA3011F0791448F0E0E0EA9344
:100574006394A62DDCDFA881AA3009F442C07394E9
:10058400A89AA881C8DFA8983CC0BA93AA931A93E2
:10059400A981BA81ED91A983BA831E2FE03019F0A5
:1005A400A12FDEDFF5CF188123960895AA93E4B333
:1005B400E06FE4BBA29AA09AA19AAA98A898A998D5
:1005C4009880E881E058E0937602E881E054E09373
:1005D4007702A4E1B0E00E9457030E9450030E94F6
:1005E40050030E945003A0E282DF81E28A95F1F772
:1005F400A8E291DFA4E08FDFA5E88DDFA6E08BDF22
:10060400A3DF21960895BA93AA93A991B991EE27ED
:10061400FF276D91662311F03196FBCF0895BA93AD
:10062400AA93AA27BB27E991F9910590002011F01C
:100634001196FBCFFD0108952A93AD85BE85EF8504
:10064400F88909950895E889F9893497E88BF98B35
:100654000895AD85BE85EF85F88909950895A88923
:10066400B98914960E944F04EE83FF83AE81BF8143
:100674000895A889B98914960E944F04EA87FB87D4
:100684000895DE011C960E943A040E944F040895C6
:100694000E948D02A3E0B0E00C945703A0E30E94F3
:1006A400790281E28A95F1F70895109639F08AEF7C
:1006B40090E00197F1F7A8951197C9F7089555238C
:1006C40042F4503811F4E0FF04C03196691F791FD9
:1006D4006BF050E8572711F45F9373C05F3F31F01C
:1006E400660F000C57956795752F08955F9300204A
:1006F4000AF073C06CC050E8192E1522880F991F98
:100704009527550F879550E8072E0522660F771F0A
:100714007527550F67950895689401C0E8945F9311
:10072400F2DF703818F07F3F08F44BC056E1571BD6
:10073400AAF4519558300EF4593030F0EFEFFFEF32
:100744006FEF7FE777F91AC077275523B9F0EE0FDB
:10075400FF1F661F771F5A95D1F710C077275830AF
:1007640028F0EF2FF62F672F5850F9CF552331F08B
:1007740076956795F795E7955A95D1F700200AF491
:100784007FD05F910895689401C0E89430976040E9
:100794007040B1F0002426F0772312F4009470D056
:1007A400172E7EE1112032F07A95EE0FFF1F661F9F
:1007B400111CF9CFEF2FF62F612D5F938ADF5F9124
:1007C4000895EE27FF27662777275F910895EFEFB7
:1007D400FFEF6FE77FEF5F910895EFEFFFEF6FE7B4
:1007E4007FE75F9108955F9386DF703821F41120CD
:1007F4000AF4EDCFF2CF903809F4E3CF0124089442
:10080400970B1BF4D4F30020F3CF792F1F932F936E
:100814003F934F9311241127222733274427552729
:1008240090E2AE17BF078607410730F0AE1BBF0B3F
:10083400860B410B089401C08894551F221F331F57
:10084400111CAA1FBB1F881F441F9A9551F7F90159
:10085400612D4F913F912F911F91662332F0550FD7
:10086400EE1FFF1F661F7A9543F229DF5F910895FB
:100874000024AF0DB01D0895F195E195F040089561
:10088400F09560957095E195FF4F6F4F7F4F0895F8
:100894006F2F660F660B762F0895ED91FC911197DB
:1008A40008950590F491E02D08957A936A93FA934C
:1008B400EA9308955A934A933A932A931A930A937C
:1008C40008955D814C813B812A81198108810895B5
:00000001FF
