:100000000C943A000C9400000C9400000C94000036
:100010000C9400000C9400000C9400000C94000060
:100020000C9400000C9400000C9400000C94000050
:100030000C9400000C9400000C9400000C94000040
:100040000C9400000C9400000C9400000C94000030
:100050000C9400001027E80364000A00010000105F
:100060000001100001002564000080C0020074023D
:100070006A000000F894EE27ECBBF1E0FBBFEBBF99
:10008000E5BF8DE0A2E0BB27ED938A95E9F780E01C
:1000900098E0A0E6ED930197E9F7ECE6F0E08591B2
:1000A0009591009761F0A591B59105901590BF01CC
:1000B000F00105900D920197E1F7FB01F0CFEFE51C
:1000C000EDBFE8E0EEBFC0E6D2E00C947500AA9365
:1000D000E881E7B983E08A95F1F7369A349BFECF41
:1000E000349AE4B1F5B10C94F202E0E0EABBEBBB68
:1000F000E7BBE8BBE4BBE5BBE1BBE2BBE3BFE2BF00
:10010000ECBFEFBDEEBDEDBDECBDE7BDE6BDEBBDAB
:10011000EABDE9BDE8BDE2BDE5BDE4BDE3BDE9BFC3
:10012000E5BFE4BFEAB9E0E8E8B9E0E0E7B9E1E853
:10013000E6B9E0E0E0BFEDB9E6BFA0E10E94C7028A
:10014000A0E0C5DF2F01E0E6F2E0FA93EA93E6E6ED
:10015000F0E0FA93EA93F2010E9458030E946503CB
:1001600084E00E9434022896A0E6B2E00E94B60223
:10017000A8ECB0E00E9446030E949502E1CFFFCFB9
:10018000BA93AA931A930A93AA81BB8112960E94EA
:100190005D03309759F1AA81BB8114960E945D03DB
:1001A0008F01309761F00230E0E01E0798F0F8010F
:1001B00031978F01AA81BB811496ED93FC93AA819C
:1001C000BB811296ED91FD913196FE93EE9331979E
:1001D000AC81A083AA81BB810E945D03FF232AF02A
:1001E000ED91FD913196FE93EE9306C0AA81BB81FD
:1001F000EFEFFFEFED93FC931981088125960895A9
:10020000BA93AA9326970E946A0310E0AC85BD8535
:10021000E0E0F0E0ED93FC93EA89FB893196EA8B0C
:10022000FB8B3197E4912E2FE03009F415C1E12FBB
:10023000E03039F4253211F411E002C00E940D03C0
:100240000AC1E130A9F4253219F40E940D0302C15C
:1002500012E040E000E02D3211F401E0FCC02B324E
:1002600011F44BE2F8C0203211F440E2F4C002C0B5
:10027000E23039F450E013E0203311F40068EBC0B1
:1002800003C0E33009F0E7C0203310F02A3308F050
:1002900007C0AAE05A9F502DE22FE0535E0FDBC04B
:1002A000E22FE33649F40E941403E889F989A48116
:1002B000AA930E941A03CEC0E33741F40E941403AC
:1002C0000E9420030E94F4021E2F0AC0E03761F44E
:1002D0000E9414030E9420030E9400031E2F086046
:1002E00002600F7730E034C0E43611F0E93611F4E3
:1002F000046002C0E53731F4E4E5F0E0EE83FF830B
:1003000015E00CC0E83511F4086003C0E83709F0C7
:10031000A1C0EEE5F0E0EE83FF8314E002FF14C01D
:100320000E9414030E942A03AB85AA233AF4EA85AB
:10033000FB850E945403EA87FB874DE2403011F0B1
:100340001F5F01C00B7F04C00E9414030E942A0398
:1003500000FD11C0151778F407FF08C002FF04C0A4
:100360000B7F242F115001C020E301C020E20E9426
:100370000D035150EFCF312F01FF17C03030A1F0E6
:1003800003FF06C0EE81FF812591EE83FF8305C048
:10039000AE81BF812D91AE83BF830E940D0350308B
:1003A00009F051503150EACF4BC020E3EE81FF817C
:1003B0000E946103E887F987EE81FF813296EE8320
:1003C000FF83E885F985AA85BB85AE17BF0750F086
:1003D0002F5FA885B985EA85FB85EA1BFB0BEA87B9
:1003E000FB87EFCF2A3328F003FF02C0295F01C04B
:1003F000295D04FD1AC0213320F4A885B985119721
:1004000009F409C0531710F000FF01C013C020E227
:1004100007FF0BC020E3006102FF07C00B7F4A9378
:100420000E941A03503009F051500E940D035030C1
:1004300009F051503150A885B985129708F0B5CF11
:1004400000FF08C0503031F05150E0E2EA930E94C2
:100450001A03F8CF10E0E0CEAC85BD850E945D03A5
:100460000E94710364960895FF92F82E26970E94C9
:100470006C030E943203309719F4EFEFFFEF23C0B3
:10048000DE0116960E9450038D010E943203EE8316
:10049000FF83E0E0E887E987DE011A960E945003B7
:1004A0000E945D03FA93EA931A930A93E0ECF0E05A
:1004B000FA93EA93DE011A96A3DE9F01AE81BF8113
:1004C000E0E0EC93F9010E9473032A96FF900895EF
:1004D000AA93E5B3EF70AE2FE881E07FEA2BE5BB8E
:1004E00082E08A95F1F7AA9A82E08A95F1F7AA98B4
:1004F00082E08A95F1F776C0AA93A881E9DFE881C6
:10050000E295E883A881E4DF81E18A95F1F76AC08A
:10051000AA93E881F0E0EC58FD4FE081A981AE0F8D
:10052000EBDF7980688022960895A2E00E9439036B
:10053000ACE0E2DFA1E00E943903E0E06E2E7E2E07
:100540000895AA93A881AA3011F0791448F0E0E048
:10055000EA936394A62DDCDFA881AA3009F442C097
:100560007394A89AA881C8DFA8983CC0BA93AA93AC
:100570001A93A981BA81ED91A983BA831E2FE03025
:1005800019F0A12FDEDFF5CF188123960895AA93E5
:10059000E4B3E06FE4BBA29AA09AA19AAA98A898A3
:1005A000A9989880E881E058E0937602E881E054C9
:1005B000E0937702A4E1B0E00E9446030E943F036B
:1005C0000E943F030E943F03A0E282DF81E28A95FE
:1005D000F1F7A8E291DFA4E08FDFA5E88DDFA6E0C8
:1005E0008BDFA3DF21960895BA93AA93A991B991BD
:1005F000EE27FF276D91662311F03196FBCF08950A
:10060000BA93AA93AA27BB27E991F99105900020F4
:1006100011F01196FBCFFD0108952A93AD85BE859B
:10062000EF85F88909950895E889F9893497E88B69
:10063000F98B0895AD85BE85EF85F88909950895F4
:10064000A889B98914960E945D03EE83FF83AE8169
:10065000BF810895A889B98914960E945D03EA872D
:10066000FB870895DE011C960E9450030E945D03E3
:1006700008950E947C02A3E0B0E00C944603A0E33E
:100680000E94680281E28A95F1F70895109639F088
:100690008AEF90E00197F1F7A8951197C9F70895AF
:1006A0000024AF0DB01D0895F195E195F040089537
:1006B0006F2F660F660B762F0895ED91FC911197C1
:1006C00008950590F491E02D08957A936A93FA9332
:1006D000EA9308955A934A933A932A931A930A9362
:1006E00008955D814C813B812A811981088108959B
:00000001FF
