:060000000C9435000C9485
:1000060000000C9400000C9400000C9400000C946A
:1000160000000C9400000C9400000C9400000C945A
:1000260000000C9400000C9400000C9400000C944A
:1000360000000C9400000C9400000C9400000C943A
:1000460000000C9400000C9400000C9400007361F6
:100056006C616D0080C006006002540002006602FA
:100066005A000000F894EE27ECBBF1E0FBBFEBBFB3
:10007600E5BF8DE0A2E0BB27ED938A95E9F780E026
:1000860098E0A0E6ED930197E9F7ECE5F0E08591BD
:100096009591009761F0A591B59105901590BF01D6
:1000A600F00105900D920197E1F7FB01F0CFEFE526
:1000B600EDBFE8E0EEBFC0E6D2E00C946200E0E0FF
:1000C600EABBEBBBE7BBE8BBE4BBE5BBE1BBE2BB22
:1000D600E3BFE2BFECBFEFBDEEBDEDBDECBDE7BDDE
:1000E600E6BDEBBDEABDE9BDE8BDE2BDE5BDE4BDEB
:1000F600E3BDE9BFE5BFE4BFEAB9E0E8E8B9E0E09F
:10010600E0BFE6B9EDB9E6BFA0E16BD0E8E0EA935F
:10011600A1E02AD0A0E6B2E053D0A4EFB1E00E945D
:1001260029012FD0F3CFFFCFAA93EBB3EF70AE2FF9
:10013600E881E07FEA2BEBBB82E08A95F1F7DA9A59
:1001460082E08A95F1F7DA9882E08A95F1F771C034
:10015600AA93A881E9DFE881E295E883A881E4DF34
:1001660081E18A95F1F765C0AA93E881F0E0EA5942
:10017600FD4FE081A981AE0FEBDF598048802296C2
:100186000895A2E058D0ACE0E3DFA1E054D0E0E06F
:100196004E2E5E2E0895AA93A881AA3011F0571408
:1001A60048F0E0E0EA934394A42DDEDFA881AA306C
:1001B60009F43FC05394D89AA881CADFD89839C0A9
:1001C600BA93AA931A93A981BA81ED91A983BA83A6
:1001D6001E2FE03019F0A12FDEDFF5CF1881239610
:1001E6000895AA93EAB3E06FEABBD29AD09AD19A5D
:1001F600DA98D898D9987880E881E058E093680230
:10020600E881E054E0936902A4E1B0E00E9429018C
:1002160017D016D015D0A0E287DF81E28A95F1F7D4
:10022600A8E296DFA4E094DFA5E892DFA6E090DFDF
:10023600A8DF219608958CDFA3E0B0E00C94290195
:10024600A0E372DF81E28A95F1F70895109639F0FE
:100256008AEF90E00197F1F7A8951197C9F70895ED
:00000001FF
