:0E0000000C9433000C9400000C9400000C943F
:10000E0000000C9400000C9400000C9400000C9462
:10001E0000000C9400000C9400000C9400000C9452
:10002E0000000C9400000C9400000C9400000C9442
:10003E0000000C9400000C9400000C9400000C9432
:10004E0000000C9400003F065B4F666D7D077F6FCE
:10005E000A00600254000000F894EE27ECBBF1E0B9
:10006E00FBBFEBBFE5BF8DE0A2E0BB27ED938A950A
:10007E00E9F780E098E0A0E6ED930197E9F7EEE569
:10008E00F0E085919591009761F0A591B59105905D
:10009E001590BF01F00105900D920197E1F7FB015C
:1000AE00F0CFEFE5EDBFE8E0EEBFC0E6D2E00C9496
:1000BE006000E0E0EABBEBBBE7BBE8BBEFEFE4BB05
:1000CE00E0E0E5BBEFEFE1BBE0E0E2BBE3BFE2BFA8
:1000DE00ECBFEFBDEEBDEDBDECBDE7BDE6BDEBBDCE
:1000EE00EABDE9BDE8BDE2BDE5BDE4BDE3BDE9BFE6
:1000FE00E5BFE4BFEAB9E0E8E8B9E0E0E0BFE6B9A1
:10010E00EDB9E6BF44245524EFE0F7E2E415F5051A
:10011E000CF442C0420166247724E3E0F0E0E615D9
:10012E00F705D4F0F301AAE6B2E0EE0FFF1FEA0FD7
:10013E00FB1FBF01D401EAE0F0E00E940301DB01E6
:10014E00ED93FC93D401EAE0F0E00E94FE004F0133
:10015E00F30131963F01E1CFEEEFE2BBE091700289
:10016E00F09171021BD0EDEFE2BBE0916E02F091C7
:10017E006F0214D0EBEFE2BBE0916C02F0916D02D6
:10018E000DD0E7EFE2BBE0916A02F0916B0206D070
:10019E00F20131962F01B8CFB5CFFFCFE05AFD4F08
:1001AE00E081E5BBAAE0B0E00C94DD00109639F0DA
:1001BE008AEF90E00197F1F7A8951197C9F7089586
:1001CE00F195E195F04008950024112490E1AA0FD5
:1001DE00BB1F001C111C0E1A1F0A18F40E0E1F1E38
:1001EE0001C0A1609A9599F7FD01D001089512D032
:1001FE00EBDF0EF4E5DF0895E894B7FF04C0A09599
:10020E00B09511966894F7FDDBDFDEDFFD010EF48D
:10021E00D7DF0895E894F7FF02C0D2DF6894B7FFE6
:10022E0006C0A095B095119600F8039400FA0895B3
:00000001FF
