:100000000C943E000C9400000C9400000C94000032
:100010000C9400000C9400000C9400000C94000060
:100020000C9400000C9400000C9400000C94000050
:100030000C9400000C9400000C9400000C94000040
:100040000C9400000C9400000C9400000C94000030
:100050000C9400001027E80364000A00010000105F
:10006000000110000100566F6C743A202564207660
:10007000000080C00200740272000000F894EE27B5
:10008000ECBBF1E0FBBFEBBFE5BF8DE0A2E0BB271F
:10009000ED938A95E9F780E098E0A0E6ED9301976B
:1000A000E9F7E4E7F0E085919591009761F0A5917B
:1000B000B59105901590BF01F00105900D92019743
:1000C000E1F7FB01F0CFEFE5EDBFE8E0EEBFC0E602
:1000D000D2E00C947900AA93E881E7B983E08A958D
:1000E000F1F7369A349BFECF349AE4B1F5B10C9413
:1000F000FF02E0E0EABBEBBBE7BBE8BBE4BBE5BB70
:10010000E1BBE2BBE3BFE2BFECBFEFBDEEBDEDBDC7
:10011000ECBDE7BDE6BDEBBDEABDE9BDE8BDE2BDB6
:10012000E5BDE4BDE3BDE9BFE5BFE4BFEAB9E0E892
:10013000E8B9E0E0E7B9E1E8E6B9E0E0E0BFEDB951
:10014000E6BFA0E10E94D402A0E0C5DFA5E0B0E0D8
:100150000E946A03DF01EFEFF3E00E9472032F01B8
:10016000E0E6F2E0FA93EA93E6E6F0E0FA93EA9347
:10017000F2010E9465030E948D0384E00E94410207
:100180002896A0E6B2E00E94C302A4E6B0E00E9476
:1001900053030E94A202D8CFFFCFBA93AA931A9317
:1001A0000A93AA81BB8112960E948503309759F168
:1001B000AA81BB8114960E9485038F01309761F05C
:1001C0000230E0E01E0798F0F80131978F01AA8114
:1001D000BB811496ED93FC93AA81BB811296ED919D
:1001E000FD913196FE93EE933197AC81A083AA8165
:1001F000BB810E948503FF232AF0ED91FD9131968A
:10020000FE93EE9306C0AA81BB81EFEFFFEFED9363
:10021000FC931981088125960895BA93AA9326978D
:100220000E94920310E0AC85BD85E0E0F0E0ED9324
:10023000FC93EA89FB893196EA8BFB8B3197E49139
:100240002E2FE03009F415C1E12FE03039F42532CA
:1002500011F411E002C00E941A030AC1E130A9F4AE
:10026000253219F40E941A0302C112E040E000E0B6
:100270002D3211F401E0FCC02B3211F44BE2F8C036
:10028000203211F440E2F4C002C0E23039F450E010
:1002900013E0203311F40068EBC003C0E33009F031
:1002A000E7C0203310F02A3308F007C0AAE05A9FB5
:1002B000502DE22FE0535E0FDBC0E22FE33649F40E
:1002C0000E942103E889F989A481AA930E94270347
:1002D000CEC0E33741F40E9421030E942D030E9407
:1002E00001031E2F0AC0E03761F40E9421030E941F
:1002F0002D030E940D031E2F086002600F7730E06F
:1003000034C0E43611F0E93611F4046002C0E53778
:1003100031F4E4E5F0E0EE83FF8315E00CC0E8354E
:1003200011F4086003C0E83709F0A1C0EEE5F0E081
:10033000EE83FF8314E002FF14C00E9421030E9499
:100340003703AB85AA233AF4EA85FB850E94610353
:10035000EA87FB874DE2403011F01F5F01C00B7F41
:1003600004C00E9421030E94370300FD11C015172D
:1003700078F407FF08C002FF04C00B7F242F115040
:1003800001C020E301C020E20E941A035150EFCFC8
:10039000312F01FF17C03030A1F003FF06C0EE81FE
:1003A000FF812591EE83FF8305C0AE81BF812D9132
:1003B000AE83BF830E941A03503009F05150315070
:1003C000EACF4BC020E3EE81FF810E948903E887DA
:1003D000F987EE81FF813296EE83FF83E885F98508
:1003E000AA85BB85AE17BF0750F02F5FA885B985DA
:1003F000EA85FB85EA1BFB0BEA87FB87EFCF2A33F5
:1004000028F003FF02C0295F01C0295D04FD1AC066
:10041000213320F4A885B985119709F409C0531731
:1004200010F000FF01C013C020E207FF0BC020E363
:10043000006102FF07C00B7F4A930E9427035030E0
:1004400009F051500E941A03503009F051503150B8
:10045000A885B985129708F0B5CF00FF08C05030C5
:1004600031F05150E0E2EA930E942703F8CF10E008
:10047000E0CEAC85BD850E9485030E9499036496F9
:100480000895FF92F82E26970E9494030E943F033E
:10049000309719F4EFEFFFEF23C0DE0116960E94AC
:1004A0005D038D010E943F03EE83FF83E0E0E88758
:1004B000E987DE011A960E945D030E948503FA9384
:1004C000EA931A930A93EDECF0E0FA93EA93DE01D3
:1004D0001A96A3DE9F01AE81BF81E0E0EC93F901A3
:1004E0000E949B032A96FF900895AA93E5B3EF70AC
:1004F000AE2FE881E07FEA2BE5BB82E08A95F1F739
:10050000AA9A82E08A95F1F7AA9882E08A95F1F793
:1005100076C0AA93A881E9DFE881E295E883A88103
:10052000E4DF81E18A95F1F76AC0AA93E881F0E0FF
:10053000EC58FD4FE081A981AE0FEBDF7980688038
:1005400022960895A2E00E944603ACE0E2DFA1E01B
:100550000E944603E0E06E2E7E2E0895AA93A881A5
:10056000AA3011F0791448F0E0E0EA936394A62DE4
:10057000DCDFA881AA3009F442C07394A89AA8814C
:10058000C8DFA8983CC0BA93AA931A93A981BA81EC
:10059000ED91A983BA831E2FE03019F0A12FDEDF81
:1005A000F5CF188123960895AA93E4B3E06FE4BBD6
:1005B000A29AA09AA19AAA98A898A9989880E88146
:1005C000E058E0937602E881E054E0937702A4E1FA
:1005D000B0E00E9453030E944C030E944C030E940F
:1005E0004C03A0E282DF81E28A95F1F7A8E291DF75
:1005F000A4E08FDFA5E88DDFA6E08BDFA3DF2196E7
:100600000895BA93AA93A991B991EE27FF276D9106
:10061000662311F03196FBCF0895BA93AA93AA27C7
:10062000BB27E991F9910590002011F01196FBCFBD
:10063000FD0108952A93AD85BE85EF85F88909955A
:100640000895E889F9893497E88BF98B0895AD8589
:10065000BE85EF85F88909950895A889B98914960A
:100660000E948503EE83FF83AE81BF810895A88930
:10067000B98914960E948503EA87FB870895DE01F5
:100680001C960E945D030E94850308950E948902C2
:10069000A3E0B0E00C945303A0E30E94750281E252
:1006A0008A95F1F70895109639F08AEF90E0019756
:1006B000F1F7A8951197C9F708950024AF0DB01D63
:1006C0000895F195E195F04008956F2F660F660B40
:1006D000762F0895FA9FF02DEB9FF00DEA9FE02D05
:1006E000F10D08950024112490E1AA0FBB1F001CF6
:1006F000111C0E1A1F0A18F40E0E1F1E01C0A16055
:100700009A9599F7FD01D0010895ED91FC9111970B
:1007100008950590F491E02D08957A936A93FA93E1
:10072000EA9308955A934A933A932A931A930A9311
:1007300008955D814C813B812A811981088108954A
:00000001FF
