:0C0000000C942A000C9400000C940000EA
:10000C000C9400000C9400000C9400000C94000064
:10001C000C9400000C9400000C9400000C94000054
:10002C000C9400000C9400000C9400000C94000044
:10003C000C9400000C9400000C9400000C94000034
:10004C000C9400000C940000F894EE27ECBBF1E04B
:10005C00FBBFEBBFE5BF8DE0A2E0BB27ED938A951C
:10006C00E9F780E098E0A0E6ED930197E9F7EFE57A
:10007C00EDBFE8E0EEBFC0E6D2E00C944500E0E056
:10008C00EABBEBBBE7BBE8BBEFEFE4BBE0E0E5BBF7
:10009C00E1BBE2BBE3BFE2BFECBFEFBDEEBDEDBD2C
:1000AC00ECBDE7BDE6BDEBBDEABDE9BDE8BDE2BD1B
:1000BC00E5BDE4BDE3BDE9BFE5BFE4BFEAB9E0E8F7
:1000CC00E8B9E0E0E0BFE6B9EDB9E6BF4424552459
:1000DC00E3E6F0E0E415F505BCF0D201EAE0F0E06F
:1000EC000E94B2006E2FD201EAE0F0E00E94AD0057
:1000FC00E295E07FE62BE5BBA4E6B0E00E948C0025
:10010C00F20131962F01E4CFE1CFFFCF109639F0F9
:10011C008AEF90E00197F1F7A8951197C9F7089528
:10012C00F195E195F04008950024112490E1AA0F77
:10013C00BB1F001C111C0E1A1F0A18F40E0E1F1EDA
:10014C0001C0A1609A9599F7FD01D001089512D0D4
:10015C00EBDF0EF4E5DF0895E894B7FF04C0A0953B
:10016C00B09511966894F7FDDBDFDEDFFD010EF430
:10017C00D7DF0895E894F7FF02C0D2DF6894B7FF89
:10018C0006C0A095B095119600F8039400FA089556
:00000001FF
