:020000000C945E
:1000020037000C9400000C9400000C9400000C9437
:1000120000000C9400000C9400000C9400000C945E
:1000220000000C9400000C9400000C9400000C944E
:1000320000000C9400000C9400000C9400000C943E
:1000420000000C9400000C9400000C9400000C942E
:1000520000006D6F68616D6D6164000080C0090011
:1000620060025400020069025E000000F894EE276C
:10007200ECBBF1E0FBBFEBBFE5BF8DE0A2E0BB272D
:10008200ED938A95E9F780E098E0A0E6ED93019779
:10009200E9F7E0E6F0E085919591009761F0A5918E
:1000A200B59105901590BF01F00105900D92019751
:1000B200E1F7FB01F0CFEFE5EDBFE8E0EEBFC0E610
:1000C200D2E00C946400E0E0EABBEBBBE7BBE8BB28
:1000D200E4BBE5BBE1BBE2BBE3BFE2BFECBFEFBD0C
:1000E200EEBDEDBDECBDE7BDE6BDEBBDEABDE9BDD4
:1000F200E8BDE2BDE5BDE4BDE3BDE9BFE5BFE4BFE8
:10010200EAB9E0E8E8B9E0E0E0BFE6B9EDB9E6BF98
:10011200A0E16FD0E4E0EA93A1E02ED0A0E6B2E045
:1001220057D0A0EDB7E00E942F0133D0A0EDB7E089
:100132000E942F01EFCFFFCFAA93E5B3EF70AE2F4E
:10014200E881E07FEA2BE5BB82E08A95F1F7AA9A83
:1001520082E08A95F1F7AA9882E08A95F1F771C058
:10016200AA93A881E9DFE881E295E883A881E4DF28
:1001720081E18A95F1F765C0AA93E881F0E0E75939
:10018200FD4FE081A981AE0FEBDF598048802296B6
:100192000895A2E058D0ACE0E3DFA1E054D0E0E063
:1001A2004E2E5E2E0895AA93A881AA3011F05714FC
:1001B20048F0E0E0EA934394A42DDEDFA881AA3060
:1001C20009F43FC05394A89AA881CADFA89839C0FD
:1001D200BA93AA931A93A981BA81ED91A983BA839A
:1001E2001E2FE03019F0A12FDEDFF5CF1881239604
:1001F2000895AA93E4B3E06FE4BBA29AA09AA19AED
:10020200AA98A898A9987880E881E058E0936B02B0
:10021200E881E054E0936C02A4E1B0E00E942F0177
:1002220017D016D015D0A0E287DF81E28A95F1F7C8
:10023200A8E296DFA4E094DFA5E892DFA6E090DFD3
:10024200A8DF219608958CDFA3E0B0E00C942F0183
:10025200A0E372DF81E28A95F1F70895109639F0F2
:100262008AEF90E00197F1F7A8951197C9F70895E1
:00000001FF
